:100000000C942A000C943F000C943F000C943F0089
:100010000C943F000C943F000C943F000C943F0064
:100020000C943F000C943F000C943F000C943F0054
:100030000C943F000C943F000C943F000C943F0044
:100040000C943F000C943F000C943F000C943F0034
:100050000C943F0011241FBECFE5D8E0DEBFCDBF1A
:1000600010E0A0E6B0E0EAE6F2E002C005900D92F2
:10007000A237B107D9F70E94F9000C9433010C9410
:10008000000088BB95989698979A8FE19EE4019717
:10009000F1F700C000009798089588BB959A96984C
:1000A000979A8FE19EE40197F1F700C000009798BE
:1000B000089588E30E9441008FEC97E00197F1F7E3
:1000C00000C0000081E00E9441008FEC97E00197A2
:1000D000F1F700C0000082E00E9441008FEC97E041
:1000E0000197F1F700C0000086E00E9441008FEC0C
:1000F00097E00197F1F700C0000080E80E944100FE
:100100008FEC97E00197F1F700C000000895CF93BE
:10011000DF93EC018881882331F021960E944D0005
:1001200089918111FBCFDF91CF9108958FE084BB3E
:1001300080EF85BB089583B3803F09F452C02FE759
:1001400088E391E0215080409040E1F700C000003A
:1001500093B385B3809585BB84B3809584BB000041
:10016000000083B38F70890F8B3E31F08B3D41F0DF
:100170008B3B51F090E001C091E38D3E49F001C00E
:1001800092E38D3D49F001C093E38D3B49F001C0FE
:1001900094E38E3E49F001C095E38E3D49F001C0E5
:1001A00096E38E3B49F001C097E3873D49F001C0DB
:1001B00098E3873E49F001C099E3873B49F001C0CD
:1001C00090E3873749F001C09EE48B3761F001C0AE
:1001D0009DE38D3751F001C09BE28E3741F48FE2F1
:1001E000089581E208958DE2089588E70895892FA2
:1001F00008958FEF87BB80EE81BB0E9459008FE18D
:100200009EE40197F1F700C000008CE00E944100DD
:100210008FE19EE40197F1F700C0000080E690E0D6
:100220000E9487008FE19EE40197F1F700C0000073
:1002300080EC0E9441008FE19EE40197F1F700C03D
:1002400000008EE00E9441008FE19EE40197F1F7EB
:1002500000C000000E9496000E949B008132E1F3E2
:0A0260000E944D00F9CFF894FFCF83
:10026A00454E5445522020414D4F554E543A202078
:02027A00000082
:00000001FF
