:100000000C942A000C9447000C94C8010C944700EF
:100010000C9447000C9447000C9447000C94470044
:100020000C9447000C9447000C9447000C94470034
:100030000C9447000C9447000C9447000C94470024
:100040000C9447000C9447000C9447000C94470014
:100050000C94470011241FBECFE5D8E0DEBFCDBF12
:1000600010E0A0E6B0E0EAE2F4E002C005900D92F4
:10007000A43AB107D9F720E0A4EAB0E001C01D928C
:10008000AB3AB207E1F70E9420010C9413020C94E2
:10009000000088BB95989698979A8FE19EE4019707
:1000A000F1F700C000009798089588BB959A96983C
:1000B000979A8FE19EE40197F1F700C000009798AE
:1000C000089588E30E9449008FEC97E00197F1F7CB
:1000D00000C0000081E00E9449008FEC97E001978A
:1000E000F1F700C0000082E00E9449008FEC97E029
:1000F0000197F1F700C0000086E00E9449008FECF4
:1001000097E00197F1F700C0000080E80E944900E5
:100110008FEC97E00197F1F700C000000895CF93AE
:10012000DF93EC018881882331F021960E945500ED
:1001300089918111FBCFDF91CF9108958FE084BB2E
:1001400080EF85BB089583B3803F09F477C02FE724
:1001500088E391E0215080409040E1F700C000002A
:1001600093B385B3809585BB84B3809584BB000031
:10017000000083B38F70890F8B3E21F491E390933D
:10018000AA000CC08B3D21F492E39093AA000CC00E
:100190008B3B21F493E39093AA000CC08D3E21F495
:1001A00094E39093AA000CC08D3D21F495E39093C5
:1001B000AA000CC08D3B21F496E39093AA000CC0DA
:1001C0008E3E21F497E39093AA000CC08E3D21F45B
:1001D00098E39093AA000CC08E3B21F499E390938E
:1001E000AA000CC0873D21F490E39093AA000CC0B4
:1001F000873E21F49EE49093AA000CC0873B21F433
:1002000090E29093AA000CC0873721F49BE2909370
:10021000AA000CC08B3721F48DE28093AA000BC09A
:100220008D3721F488E78093AA0005C08E3719F432
:100230008FE28093AA008091AA00089581E2089538
:100240008FEF87BB84EE81BB939A8BB780688BBF9F
:1002500078940E9461008FE19EE40197F1F700C05D
:1002600000008CE00E9449008FE19EE40197F1F7C5
:1002700000C00000FFCF81E00E9449008FE19EE4B2
:100280000197F1F700C0000080E690E00E948F0027
:100290008FE19EE40197F1F700C0000080EC0E941E
:1002A00049008FE19EE40197F1F700C000008EE065
:1002B0000E9449008FE19EE40197F1F700C0000021
:1002C000089581E00E9449008FE19EE40197F1F7D3
:1002D00000C000008FE690E00E948F009FEF29E6AB
:1002E00088E1915020408040E1F700C0000081E0AB
:1002F0000E9449008FE19EE40197F1F700C00000E1
:100300008DE790E00E948F0080EC0E9449008FE111
:100310009EE40197F1F700C0000089E890E00E9498
:100320008F009FEF29E688E1915020408040E1F75F
:1003300000C00000089581E00E9449008FE19EE422
:100340000197F1F700C0000083E990E00E948F0060
:100350008FE19EE40197F1F700C0000080EC0E945D
:1003600049008FE19EE40197F1F700C00000109270
:10037000A400E0E0F0E0EB55FF4F80810E945500C3
:10038000E091A400EF5FE093A400E53098F30895B6
:100390001F920F920FB60F9211242F933F934F93FA
:1003A0005F936F937F938F939F93AF93BF93CF93FD
:1003B000DF93EF93FF930E943B010E949E00C09148
:1003C000A400D0E00E94A300CB55DF4F8883E091CA
:1003D000A400F0E0EB55FF4F8081813281F30E9451
:1003E0005500E091A400EF5FE093A400F0E0EC552D
:1003F000FF4F8081803209F70E9461010E949B01BA
:10040000FF91EF91DF91CF91BF91AF919F918F912C
:100410007F916F915F914F913F912F910F900FBE00
:0A0420000F901F901895F894FFCF7D
:10042A00454E5445522020414D4F554E543A0050A6
:10043A00726F63657373696E672E2E2E0054726134
:10044A006E73616374696F6E00436F6D706C65746F
:10045A00652E0043757272656E742042616C616E1E
:04046A0063653A008C
:00000001FF
