:100000000C942A000C943F000C943F000C943F0089
:100010000C943F000C943F000C943F000C943F0064
:100020000C943F000C943F000C943F000C943F0054
:100030000C943F000C943F000C943F000C943F0044
:100040000C943F000C943F000C943F000C943F0034
:100050000C943F0011241FBECFE5D8E0DEBFCDBF1A
:1000600010E0A0E6B0E0EEE5F2E002C005900D92EF
:10007000AC38B107D9F70E94EC000C942D010C9418
:1000800000008FE081BB8FEF84BB85BB0895EF92AA
:10009000FF920F931F93CF93DF937C010E94410047
:1000A000C0E6D0E0888182BBC70168EE73E00E94A1
:1000B0000501660F771FFB01E859FF4F408145BBE3
:1000C000EFE1FEE43197F1F700C000004A8142BB46
:1000D00004E610E0B8010E940501FB01EE0FFF1FCE
:1000E000E859FF4F808185BB8FE19EE40197F1F7CE
:1000F00000C000008C8182BBC701B8010E940501CD
:100100000AE010E0B8010E940501FB01EE0FFF1F9D
:10011000E859FF4F808185BBEFE1FEE43197F1F7AD
:1001200000C000008E8182BBC701B8010E9405019A
:10013000FC01EE0FFF1FE859FF4F808185BB8FE167
:100140009EE40197F1F700C00000DF91CF911F916D
:100150000F91FF90EF9008950E944100A0E6B0E05B
:100160008C9182BBE8E6F0E0868D85BB8FE19EE452
:100170000197F1F700C0000012968C91129782BB94
:1001800080A185BB8FE19EE40197F1F700C00000DC
:1001900014968C91149782BB868985BB8FE19EE46F
:1001A0000197F1F700C0000016968C91169782BB5C
:1001B000868985BB8FE19EE40197F1F700C00000BE
:1001C00016968C9182BB82A185BB8FE19EE401973C
:1001D000F1F700C0000008950E94AC002FEF8DE3FE
:1001E00099E4215080409040E1F700C0000083E294
:1001F00093E10E9447002FEF8DE399E42150804066
:100200009040E1F700C00000E7CF97FB072E16F4FF
:10021000009407D077FD09D00E94190107FC05D092
:100220003EF4909581959F4F0895709561957F4F0D
:100230000895AA1BBB1B51E107C0AA1FBB1FA6172D
:10024000B70710F0A61BB70B881F991F5A95A9F77F
:0E02500080959095BC01CD010895F894FFCFE4
:10025E000100020004000800C000F900A400B00074
:10026E00990092008200F800800090008800C6007D
:0C027E008E00CF00C7009200C1007F007E
:00000001FF
