:100000000C942A000C9447000C9447000C94470071
:100010000C9447000C9447000C9447000C94470044
:100020000C9447000C9447000C9447000C94470034
:100030000C9447000C9447000C9447000C94470024
:100040000C9447000C9447000C9447000C94470014
:100050000C94470011241FBECFE5D8E0DEBFCDBF12
:1000600010E0A0E6B0E0E2E1F3E002C005900D92FE
:10007000AE38B107D9F720E0AEE8B0E001C01D927C
:10008000AF38B207E1F70E943B010C9487010C9452
:1000900000008FE081BB8FEF84BB85BB0895EF929A
:1000A000FF920F931F93CF93DF937C010E9449002F
:1000B000C0E6D0E0888182BBC70168EE73E00E9491
:1000C0005F01660F771FFB01E859FF4F408145BB79
:1000D000EFE1FEE43197F1F700C000004A8142BB36
:1000E00004E610E0B8010E945F01FB01EE0FFF1F64
:1000F000E859FF4F808185BB8FE19EE40197F1F7BE
:1001000000C000008C8182BBC701B8010E945F0162
:100110000AE010E0B8010E945F01FB01EE0FFF1F33
:10012000E859FF4F808185BBEFE1FEE43197F1F79D
:1001300000C000008E8182BBC701B8010E945F0130
:10014000FC01EE0FFF1FE859FF4F808185BB8FE157
:100150009EE40197F1F700C00000DF91CF911F915D
:100160000F91FF90EF9008950E944900A0E6B0E043
:100170008C9182BBE8E6F0E0868D85BB8FE19EE442
:100180000197F1F700C0000012968C91129782BB84
:1001900080A185BB8FE19EE40197F1F700C00000CC
:1001A00014968C91149782BB868985BB8FE19EE45F
:1001B0000197F1F700C0000016968C91169782BB4C
:1001C000868985BB8FE19EE40197F1F700C00000AE
:1001D00016968C9182BB82A185BB8FE19EE401972C
:1001E000F1F700C0000008950E944900A0E6B0E0C9
:1001F0008C9182BBE8E6F0E0808D85BB8FE19EE4C8
:100200000197F1F700C0000012968C91129782BB03
:10021000848985BB8FE19EE40197F1F700C000005F
:1002200014968C91149782BB828D85BB8FE19EE4DE
:100230000197F1F700C0000016968C9182BB848D67
:1002400085BB8FE19EE40197F1F700C0000008959F
:1002500080918C0090918D00853691054CF08C59E1
:100260009F4F90938D0080938C0081E380938E004C
:1002700080918E0008958EB581608EBD0E94280108
:1002800080938E00C0E00AC0CF5F80918E008133E2
:1002900019F40E94B40002C00E94F4008CB59DB510
:1002A00080369A4E88F31DBC1CBCCF5FCC33B0F3B4
:1002B00080918C0090918D000E944F00F9CF97FBA8
:1002C000072E16F4009407D077FD09D00E94730121
:1002D00007FC05D03EF4909581959F4F0895709549
:1002E00061957F4F0895AA1BBB1B51E107C0AA1F50
:1002F000BB1FA617B70710F0A61BB70B881F991FC7
:100300005A95A9F780959095BC01CD010895F89470
:02031000FFCF1D
:100312000100020004000800C000F900A400B000BF
:10032200990092008200F800800090008800C600C8
:0E0332008E00CF00C7009200C1007F0087132D
:00000001FF
