S00F00004C63645F6176722E737265635A
S11300000C942A000C943F000C943F000C943F0085
S11300100C943F000C943F000C943F000C943F0060
S11300200C943F000C943F000C943F000C943F0050
S11300300C943F000C943F000C943F000C943F0040
S11300400C943F000C943F000C943F000C943F0030
S11300500C943F0011241FBECFE5D8E0DEBFCDBF16
S113006010E0A0E6B0E0EEE9F1E002C005900D92E8
S1130070A237B107D9F70E9496000C94CD000C94D6
S1130080000088BB95989698979A8FE39CE901970E
S1130090F1F700C000009798089588BB959A969848
S11300A0979A8FE39CE90197F1F700C000009798B5
S11300B0089588E30E9441008FE99FE00197F1F7DA
S11300C000C0000081E00E9441008FE99FE0019799
S11300D0F1F700C0000082E00E9441008FE99FE038
S11300E00197F1F700C0000086E00E9441008FE90B
S11300F09FE00197F1F700C0000080E80E944100F2
S11301008FE99FE00197F1F700C000000895CF93B5
S1130110DF93EC018881882331F021960E944D0001
S113012089918111FBCFDF91CF9108958FEF87BB28
S113013080EE81BB0E9459008FE39CE90197F1F79F
S113014000C000008CE00E9441008FE39CE901970D
S1130150F1F700C0000080E690E00E9487008FE382
S11301609CE90197F1F700C0000080EC0E94410077
S11301708FE39CE90197F1F700C000008EE00E9434
S113018041009FEF21EE84E0915020408040E1F750
S111019000C0000080E090E00895F894FFCFD6
S113019E454E5445522020414D4F554E543A202041
S10501AE00004B
S9030000FC
