:100000000C942A000C9434000C9434000C943400AA
:100010000C9434000C9434000C9434000C94340090
:100020000C9434000C9434000C9434000C94340080
:100030000C9434000C9434000C9434000C94340070
:100040000C9434000C9434000C9434000C94340060
:100050000C94340011241FBECFE5D8E0DEBFCDBF25
:100060000E9463000C9468000C9400008FEF84BB26
:1000700015BA8FE087BB80EF88BB089586B3803FB9
:1000800009F12FEF80E792E0215080409040E1F7A6
:1000900000C0000096B388B3809588BB87B3809575
:1000A00087BB0000000086B38F70890F85BB2FEFE0
:1000B00087EA91E6215080409040E1F700C00000BF
:1000C0000E94360008950E9436000E943E00FDCF37
:0400D000F894FFCFD2
:00000001FF
